{
  "abi": [
    {
      "anonymous": false,
      "inputs": [
        {
          "indexed": true,
          "internalType": "bytes32",
          "name": "role",
          "type": "bytes32"
        },
        {
          "indexed": true,
          "internalType": "bytes32",
          "name": "previousAdminRole",
          "type": "bytes32"
        },
        {
          "indexed": true,
          "internalType": "bytes32",
          "name": "newAdminRole",
          "type": "bytes32"
        }
      ],
      "name": "RoleAdminChanged",
      "type": "event"
    },
    {
      "anonymous": false,
      "inputs": [
        {
          "indexed": true,
          "internalType": "bytes32",
          "name": "role",
          "type": "bytes32"
        },
        {
          "indexed": true,
          "internalType": "address",
          "name": "account",
          "type": "address"
        },
        {
          "indexed": true,
          "internalType": "address",
          "name": "sender",
          "type": "address"
        }
      ],
      "name": "RoleGranted",
      "type": "event"
    },
    {
      "anonymous": false,
      "inputs": [
        {
          "indexed": true,
          "internalType": "bytes32",
          "name": "role",
          "type": "bytes32"
        },
        {
          "indexed": true,
          "internalType": "address",
          "name": "account",
          "type": "address"
        },
        {
          "indexed": true,
          "internalType": "address",
          "name": "sender",
          "type": "address"
        }
      ],
      "name": "RoleRevoked",
      "type": "event"
    },
    {
      "inputs": [],
      "name": "APY",
      "outputs": [
        {
          "internalType": "uint256",
          "name": "apy",
          "type": "uint256"
        },
        {
          "internalType": "uint256",
          "name": "decimals",
          "type": "uint256"
        }
      ],
      "stateMutability": "view",
      "type": "function"
    },
    {
      "inputs": [],
      "name": "DEFAULT_ADMIN_ROLE",
      "outputs": [
        {
          "internalType": "bytes32",
          "name": "",
          "type": "bytes32"
        }
      ],
      "stateMutability": "view",
      "type": "function"
    },
    {
      "inputs": [],
      "name": "EMERGENCY_ADMIN_ROLE",
      "outputs": [
        {
          "internalType": "bytes32",
          "name": "",
          "type": "bytes32"
        }
      ],
      "stateMutability": "view",
      "type": "function"
    },
    {
      "inputs": [],
      "name": "STRATEGY_ADMIN_ROLE",
      "outputs": [
        {
          "internalType": "bytes32",
          "name": "",
          "type": "bytes32"
        }
      ],
      "stateMutability": "view",
      "type": "function"
    },
    {
      "inputs": [],
      "name": "STRATEGY_CONTROLLER_ROLE",
      "outputs": [
        {
          "internalType": "bytes32",
          "name": "",
          "type": "bytes32"
        }
      ],
      "stateMutability": "view",
      "type": "function"
    },
    {
      "inputs": [
        {
          "internalType": "contract IERC20",
          "name": "token",
          "type": "address"
        }
      ],
      "name": "approxAvailable",
      "outputs": [
        {
          "internalType": "uint256",
          "name": "amount",
          "type": "uint256"
        }
      ],
      "stateMutability": "view",
      "type": "function"
    },
    {
      "inputs": [
        {
          "internalType": "contract IERC20",
          "name": "token",
          "type": "address"
        }
      ],
      "name": "approxBalance",
      "outputs": [
        {
          "internalType": "uint256",
          "name": "amount",
          "type": "uint256"
        }
      ],
      "stateMutability": "view",
      "type": "function"
    },
    {
      "inputs": [],
      "name": "beVault",
      "outputs": [
        {
          "internalType": "contract IBeefyVaultV6",
          "name": "",
          "type": "address"
        }
      ],
      "stateMutability": "view",
      "type": "function"
    },
    {
      "inputs": [
        {
          "internalType": "uint256[]",
          "name": "amount",
          "type": "uint256[]"
        }
      ],
      "name": "deposit",
      "outputs": [],
      "stateMutability": "nonpayable",
      "type": "function"
    },
    {
      "inputs": [],
      "name": "depositAll",
      "outputs": [],
      "stateMutability": "nonpayable",
      "type": "function"
    },
    {
      "inputs": [
        {
          "internalType": "bytes32",
          "name": "role",
          "type": "bytes32"
        }
      ],
      "name": "getRoleAdmin",
      "outputs": [
        {
          "internalType": "bytes32",
          "name": "",
          "type": "bytes32"
        }
      ],
      "stateMutability": "view",
      "type": "function"
    },
    {
      "inputs": [
        {
          "internalType": "bytes32",
          "name": "role",
          "type": "bytes32"
        },
        {
          "internalType": "address",
          "name": "account",
          "type": "address"
        }
      ],
      "name": "grantRole",
      "outputs": [],
      "stateMutability": "nonpayable",
      "type": "function"
    },
    {
      "inputs": [
        {
          "internalType": "bytes32",
          "name": "role",
          "type": "bytes32"
        },
        {
          "internalType": "address",
          "name": "account",
          "type": "address"
        }
      ],
      "name": "hasRole",
      "outputs": [
        {
          "internalType": "bool",
          "name": "",
          "type": "bool"
        }
      ],
      "stateMutability": "view",
      "type": "function"
    },
    {
      "inputs": [
        {
          "internalType": "contract IERC20",
          "name": "token",
          "type": "address"
        },
        {
          "internalType": "uint256",
          "name": "amount",
          "type": "uint256"
        }
      ],
      "name": "inCaseTokensGetStuck",
      "outputs": [],
      "stateMutability": "nonpayable",
      "type": "function"
    },
    {
      "inputs": [
        {
          "internalType": "contract IERC20[]",
          "name": "token",
          "type": "address[]"
        },
        {
          "internalType": "uint256",
          "name": "initialAPY",
          "type": "uint256"
        },
        {
          "internalType": "contract IUniswapV2Router02",
          "name": "_uniRouter",
          "type": "address"
        },
        {
          "internalType": "contract IUniswapV2Factory",
          "name": "_uniFactory",
          "type": "address"
        },
        {
          "internalType": "contract IBeefyVaultV6",
          "name": "_beVault",
          "type": "address"
        }
      ],
      "name": "initialize",
      "outputs": [],
      "stateMutability": "nonpayable",
      "type": "function"
    },
    {
      "inputs": [
        {
          "internalType": "contract IERC20",
          "name": "token",
          "type": "address"
        }
      ],
      "name": "isSupportedToken",
      "outputs": [
        {
          "internalType": "bool",
          "name": "supportedToken",
          "type": "bool"
        }
      ],
      "stateMutability": "view",
      "type": "function"
    },
    {
      "inputs": [
        {
          "internalType": "bytes32",
          "name": "role",
          "type": "bytes32"
        },
        {
          "internalType": "address",
          "name": "account",
          "type": "address"
        }
      ],
      "name": "renounceRole",
      "outputs": [],
      "stateMutability": "nonpayable",
      "type": "function"
    },
    {
      "inputs": [
        {
          "internalType": "bytes32",
          "name": "role",
          "type": "bytes32"
        },
        {
          "internalType": "address",
          "name": "account",
          "type": "address"
        }
      ],
      "name": "revokeRole",
      "outputs": [],
      "stateMutability": "nonpayable",
      "type": "function"
    },
    {
      "inputs": [
        {
          "internalType": "bytes4",
          "name": "interfaceId",
          "type": "bytes4"
        }
      ],
      "name": "supportsInterface",
      "outputs": [
        {
          "internalType": "bool",
          "name": "",
          "type": "bool"
        }
      ],
      "stateMutability": "view",
      "type": "function"
    },
    {
      "inputs": [
        {
          "internalType": "uint256",
          "name": "index",
          "type": "uint256"
        }
      ],
      "name": "tokenByIndex",
      "outputs": [
        {
          "internalType": "contract IERC20",
          "name": "token",
          "type": "address"
        }
      ],
      "stateMutability": "view",
      "type": "function"
    },
    {
      "inputs": [],
      "name": "tokenCount",
      "outputs": [
        {
          "internalType": "uint256",
          "name": "count",
          "type": "uint256"
        }
      ],
      "stateMutability": "view",
      "type": "function"
    },
    {
      "inputs": [],
      "name": "uniFactory",
      "outputs": [
        {
          "internalType": "contract IUniswapV2Factory",
          "name": "",
          "type": "address"
        }
      ],
      "stateMutability": "view",
      "type": "function"
    },
    {
      "inputs": [],
      "name": "uniRouter",
      "outputs": [
        {
          "internalType": "contract IUniswapV2Router02",
          "name": "",
          "type": "address"
        }
      ],
      "stateMutability": "view",
      "type": "function"
    },
    {
      "inputs": [
        {
          "internalType": "uint256",
          "name": "apy",
          "type": "uint256"
        }
      ],
      "name": "updateAPY",
      "outputs": [],
      "stateMutability": "nonpayable",
      "type": "function"
    },
    {
      "inputs": [
        {
          "internalType": "uint256[]",
          "name": "amount",
          "type": "uint256[]"
        }
      ],
      "name": "withdraw",
      "outputs": [],
      "stateMutability": "nonpayable",
      "type": "function"
    },
    {
      "inputs": [],
      "name": "withdrawAll",
      "outputs": [],
      "stateMutability": "nonpayable",
      "type": "function"
    }
  ],
  "bytecode": {
    "object": "0x608060405234801561001057600080fd5b50612626806100206000396000f3fe608060405234801561001057600080fd5b506004361061018e5760003560e01c8063853828b6116100de578063a217fddf11610097578063d547741f11610071578063d547741f14610343578063de5f626814610356578063ef8bd3051461035e578063fae728cd1461037557600080fd5b8063a217fddf14610315578063a8e12e4c1461031d578063c6d758cb1461033057600080fd5b8063853828b6146102c357806391d14854146102cb578063983d95ce146102de5780639be323f4146102f15780639f181b5e146102fa578063a0e47bf61461030257600080fd5b80634cbe08f01161014b578063612a1b0911610125578063612a1b09146102815780636e76fc8f1461029457806376771d4b1461029d5780637c1412ca146102b057600080fd5b80634cbe08f0146102305780634f6ccce71461025b578063598b8e711461026e57600080fd5b806301ffc9a7146101935780630b74ce8c146101bb578063240028e8146101d2578063248a9ca3146101e55780632f2ff15d1461020857806336568abe1461021d575b600080fd5b6101a66101a1366004611f73565b610388565b60405190151581526020015b60405180910390f35b6101c4609a5481565b6040519081526020016101b2565b6101a66101e0366004611fb2565b6103bf565b6101c46101f3366004611fcf565b60009081526065602052604090206001015490565b61021b610216366004611fe8565b6103cc565b005b61021b61022b366004611fe8565b6103f7565b609e54610243906001600160a01b031681565b6040516001600160a01b0390911681526020016101b2565b610243610269366004611fcf565b61047a565b61021b61027c366004612083565b6104f2565b6101c461028f366004611fb2565b610530565b6101c460995481565b609d54610243906001600160a01b031681565b6101c46102be366004611fb2565b6108e8565b61021b610920565b6101a66102d9366004611fe8565b610a41565b61021b6102ec366004612083565b610a6c565b6101c4609b5481565b6101c4610aba565b609c54610243906001600160a01b031681565b6101c4600081565b61021b61032b36600461211e565b610acb565b61021b61033e3660046121f3565b610c5b565b61021b610351366004611fe8565b610cd4565b61021b610cfa565b609f546040805191825260046020830152016101b2565b61021b610383366004611fcf565b610e20565b60006001600160e01b03198216637965db0b60e01b14806103b957506301ffc9a760e01b6001600160e01b03198316145b92915050565b60006103b9609783610e70565b6000828152606560205260409020600101546103e88133610e92565b6103f28383610ef6565b505050565b6001600160a01b038116331461046c5760405162461bcd60e51b815260206004820152602f60248201527f416363657373436f6e74726f6c3a2063616e206f6e6c792072656e6f756e636560448201526e103937b632b9903337b91039b2b63360891b60648201526084015b60405180910390fd5b6104768282610f7c565b5050565b6000610484610aba565b82106104e75760405162461bcd60e51b815260206004820152602c60248201527f537570706f727473546f6b656e3a20496e646578206d757374206265206c657360448201526b1cc81d1a185b8818dbdd5b9d60a21b6064820152608401610463565b6103b9609783610fe3565b806104fb610aba565b81511461051a5760405162461bcd60e51b81526004016104639061221f565b609b546105278133610e92565b6103f283610fef565b60008161053c816103bf565b6105585760405162461bcd60e51b815260040161046390612286565b609e546040516370a0823160e01b8152306004820152670de0b6b3a76400009160009161065c918491610656916001600160a01b0316906370a0823190602401602060405180830381865afa1580156105b5573d6000803e3d6000fd5b505050506040513d601f19601f820116820180604052508101906105d991906122d6565b609e60009054906101000a90046001600160a01b03166001600160a01b03166377c7b8fc6040518163ffffffff1660e01b8152600401602060405180830381865afa15801561062c573d6000803e3d6000fd5b505050506040513d601f19601f8201168201806040525081019061065091906122d6565b90611058565b90611064565b609d549091506000906001600160a01b031663e6a4390561067c8361047a565b610686600161047a565b6040516001600160e01b031960e085901b1681526001600160a01b03928316600482015291166024820152604401602060405180830381865afa1580156106d1573d6000803e3d6000fd5b505050506040513d601f19601f820116820180604052508101906106f591906122ef565b9050600080826001600160a01b0316630902f1ac6040518163ffffffff1660e01b8152600401606060405180830381865afa158015610738573d6000803e3d6000fd5b505050506040513d601f19601f8201168201806040525081019061075c9190612323565b506001600160701b031691506001600160701b031691506000886001600160a01b0316846001600160a01b0316630dfe16816040518163ffffffff1660e01b8152600401602060405180830381865afa1580156107bd573d6000803e3d6000fd5b505050506040513d601f19601f820116820180604052508101906107e191906122ef565b6001600160a01b031614156107f75750816107fa565b50805b6040516370a0823160e01b81523060048201526108db906001600160a01b038b16906370a0823190602401602060405180830381865afa158015610842573d6000803e3d6000fd5b505050506040513d601f19601f8201168201806040525081019061086691906122d6565b6108d5866001600160a01b03166318160ddd6040518163ffffffff1660e01b8152600401602060405180830381865afa1580156108a7573d6000803e3d6000fd5b505050506040513d601f19601f820116820180604052508101906108cb91906122d6565b6106568986611058565b90611070565b9998505050505050505050565b6000816108f4816103bf565b6109105760405162461bcd60e51b815260040161046390612286565b61091983610530565b9392505050565b609b5461092d8133610e92565b61093561107c565b600061093f610aba565b67ffffffffffffffff81111561095757610957612018565b604051908082528060200260200182016040528015610980578160200160208202803683370190505b50905060005b61098e610aba565b811015610a375761099e8161047a565b6040516370a0823160e01b81523060048201526001600160a01b0391909116906370a0823190602401602060405180830381865afa1580156109e4573d6000803e3d6000fd5b505050506040513d601f19601f82011682018060405250810190610a0891906122d6565b828281518110610a1a57610a1a612373565b602090810291909101015280610a2f8161239f565b915050610986565b506104768161130f565b60009182526065602090815260408084206001600160a01b0393909316845291905290205460ff1690565b80610a75610aba565b815114610a945760405162461bcd60e51b81526004016104639061221f565b609b54610aa18133610e92565b610aa961107c565b610ab28361130f565b6103f261136a565b6000610ac660976116c3565b905090565b600054610100900460ff16610ae65760005460ff1615610aea565b303b155b610b4d5760405162461bcd60e51b815260206004820152602e60248201527f496e697469616c697a61626c653a20636f6e747261637420697320616c72656160448201526d191e481a5b9a5d1a585b1a5e995960921b6064820152608401610463565b600054610100900460ff16158015610b6f576000805461ffff19166101011790555b610b776116cd565b610b828660026116f6565b610b8a611727565b7f5604e2fe54b4de17b81a5ded6f82357d742fd2722d67304e37ff20bd589b4f38609a819055610bba908061175e565b610bcc609a54610bc73390565b610ef6565b7fd804c5bf32ccb7c8f087c7a3be22668464f9b4302aec069f690a2c9ba96fc026609b819055609a54610bff919061175e565b609f859055609c80546001600160a01b038087166001600160a01b031992831617909255609d8054868416908316179055609e8054928516929091169190911790558015610c53576000805461ff00191690555b505050505050565b609954610c688133610e92565b73eeeeeeeeeeeeeeeeeeeeeeeeeeeeeeeeeeeeeeee6001600160a01b0384161415610cc057604051339083156108fc029084906000818181858888f19350505050158015610cba573d6000803e3d6000fd5b50505050565b6103f26001600160a01b03841633846117a9565b600082815260656020526040902060010154610cf08133610e92565b6103f28383610f7c565b609b54610d078133610e92565b6000610d11610aba565b67ffffffffffffffff811115610d2957610d29612018565b604051908082528060200260200182016040528015610d52578160200160208202803683370190505b50905060005b610d60610aba565b811015610e1657610d708161047a565b6001600160a01b03166370a08231336040516001600160e01b031960e084901b1681526001600160a01b039091166004820152602401602060405180830381865afa158015610dc3573d6000803e3d6000fd5b505050506040513d601f19601f82011682018060405250810190610de791906122d6565b828281518110610df957610df9612373565b602090810291909101015280610e0e8161239f565b915050610d58565b5061047681610fef565b609b54610e2d8133610e92565b60466000610e4c6064610656610e43828661180c565b609f5490611058565b9050610e67610e6060646106568786611058565b8290611070565b609f5550505050565b6001600160a01b03811660009081526001830160205260408120541515610919565b610e9c8282610a41565b61047657610eb4816001600160a01b03166014611818565b610ebf836020611818565b604051602001610ed09291906123e6565b60408051601f198184030181529082905262461bcd60e51b82526104639160040161245b565b610f008282610a41565b6104765760008281526065602090815260408083206001600160a01b03851684529091529020805460ff19166001179055610f383390565b6001600160a01b0316816001600160a01b0316837f2f8788117e7eff1d82e926ec794901d17c78024a50270940304540a733656f0d60405160405180910390a45050565b610f868282610a41565b156104765760008281526065602090815260408083206001600160a01b0385168085529252808320805460ff1916905551339285917ff6391f5c32d9c69d2a47ea670b442974b53935d1edc7fd64eb21e047a839171b9190a45050565b600061091983836119b4565b60005b610ffa610aba565b81101561104c5761103a333084848151811061101857611018612373565b60200260200101516110298561047a565b6001600160a01b03169291906119de565b806110448161239f565b915050610ff2565b5061105561136a565b50565b6000610919828461248e565b600061091982846124ad565b600061091982846124cf565b609e546040516370a0823160e01b81523060048201526001600160a01b03909116906370a0823190602401602060405180830381865afa1580156110c4573d6000803e3d6000fd5b505050506040513d601f19601f820116820180604052508101906110e891906122d6565b6110ee57565b609e60009054906101000a90046001600160a01b03166001600160a01b031663853828b66040518163ffffffff1660e01b8152600401600060405180830381600087803b15801561113e57600080fd5b505af1158015611152573d6000803e3d6000fd5b505050506000611162600061047a565b90506000611170600161047a565b609d5460405163e6a4390560e01b81526001600160a01b03858116600483015280841660248301529293506000929091169063e6a4390590604401602060405180830381865afa1580156111c8573d6000803e3d6000fd5b505050506040513d601f19601f820116820180604052508101906111ec91906122ef565b6040516370a0823160e01b81523060048201529091506000906001600160a01b038316906370a0823190602401602060405180830381865afa158015611236573d6000803e3d6000fd5b505050506040513d601f19601f8201168201806040525081019061125a91906122d6565b609c54909150611277906001600160a01b03848116911683611a16565b609c54604051635d5155ef60e11b81526001600160a01b03868116600483015285811660248301526044820184905260016064830181905260848301523060a48301524260c48301529091169063baa2abde9060e40160408051808303816000875af11580156112eb573d6000803e3d6000fd5b505050506040513d601f19601f82011682018060405250810190610c5391906124e7565b60005b61131a610aba565b811015610476576113583383838151811061133757611337612373565b60200260200101516113488461047a565b6001600160a01b031691906117a9565b806113628161239f565b915050611312565b6000611376600061047a565b90506000611384600161047a565b6040516370a0823160e01b81523060048201529091506000906001600160a01b038416906370a0823190602401602060405180830381865afa1580156113ce573d6000803e3d6000fd5b505050506040513d601f19601f820116820180604052508101906113f291906122d6565b6040516370a0823160e01b81523060048201529091506000906001600160a01b038416906370a0823190602401602060405180830381865afa15801561143c573d6000803e3d6000fd5b505050506040513d601f19601f8201168201806040525081019061146091906122d6565b905081158061146d575080155b156114785750505050565b609c54611492906001600160a01b03868116911684611a16565b609c546114ac906001600160a01b03858116911683611a16565b609c5460405162e8e33760e81b81526001600160a01b0386811660048301528581166024830152604482018590526064820184905260016084830181905260a48301523060c48301524260e48301529091169063e8e3370090610104016060604051808303816000875af1158015611528573d6000803e3d6000fd5b505050506040513d601f19601f8201168201806040525081019061154c919061250b565b5050609d5460405163e6a4390560e01b81526001600160a01b0387811660048301528681166024830152600093509091169063e6a4390590604401602060405180830381865afa1580156115a4573d6000803e3d6000fd5b505050506040513d601f19601f820116820180604052508101906115c891906122ef565b6040516370a0823160e01b81523060048201529091506000906001600160a01b038316906370a0823190602401602060405180830381865afa158015611612573d6000803e3d6000fd5b505050506040513d601f19601f8201168201806040525081019061163691906122d6565b609e54909150611653906001600160a01b03848116911683611a16565b609e60009054906101000a90046001600160a01b03166001600160a01b031663de5f62686040518163ffffffff1660e01b8152600401600060405180830381600087803b1580156116a357600080fd5b505af11580156116b7573d6000803e3d6000fd5b50505050505050505050565b60006103b9825490565b600054610100900460ff166116f45760405162461bcd60e51b815260040161046390612539565b565b600054610100900460ff1661171d5760405162461bcd60e51b815260040161046390612539565b6104768282611ac8565b600054610100900460ff1661174e5760405162461bcd60e51b815260040161046390612539565b6117566116cd565b6116f4611b6e565b600082815260656020526040808220600101805490849055905190918391839186917fbd79b86ffe0ab8e8776151514217cd7cacd52c909f66475c3af44e129f0b00ff9190a4505050565b6040516001600160a01b0383166024820152604481018290526103f290849063a9059cbb60e01b906064015b60408051601f198184030181529190526020810180516001600160e01b03166001600160e01b031990931692909217909152611bd2565b60006109198284612584565b6060600061182783600261248e565b6118329060026124cf565b67ffffffffffffffff81111561184a5761184a612018565b6040519080825280601f01601f191660200182016040528015611874576020820181803683370190505b509050600360fc1b8160008151811061188f5761188f612373565b60200101906001600160f81b031916908160001a905350600f60fb1b816001815181106118be576118be612373565b60200101906001600160f81b031916908160001a90535060006118e284600261248e565b6118ed9060016124cf565b90505b6001811115611965576f181899199a1a9b1b9c1cb0b131b232b360811b85600f166010811061192157611921612373565b1a60f81b82828151811061193757611937612373565b60200101906001600160f81b031916908160001a90535060049490941c9361195e8161259b565b90506118f0565b5083156109195760405162461bcd60e51b815260206004820181905260248201527f537472696e67733a20686578206c656e67746820696e73756666696369656e746044820152606401610463565b60008260000182815481106119cb576119cb612373565b9060005260206000200154905092915050565b6040516001600160a01b0380851660248301528316604482015260648101829052610cba9085906323b872dd60e01b906084016117d5565b604051636eb1769f60e11b81523060048201526001600160a01b038381166024830152600091839186169063dd62ed3e90604401602060405180830381865afa158015611a67573d6000803e3d6000fd5b505050506040513d601f19601f82011682018060405250810190611a8b91906122d6565b611a9591906124cf565b6040516001600160a01b038516602482015260448101829052909150610cba90859063095ea7b360e01b906064016117d5565b600054610100900460ff16611aef5760405162461bcd60e51b815260040161046390612539565b80825114611b655760405162461bcd60e51b815260206004820152603c60248201527f537570706f727473546f6b656e3a204e756d626572206f6620746f6b656e732060448201527f6d757374206d6174636820676976656e20746f6b656e20636f756e74000000006064820152608401610463565b61047682611ca4565b600054610100900460ff16611b955760405162461bcd60e51b815260040161046390612539565b7f5358bcfd81d1ef3da152b1755e1c3c6739686fa7e83dbcad0071568cc4b73a636099819055611bc5908061175e565b6116f4609954610bc73390565b6000611c27826040518060400160405280602081526020017f5361666545524332303a206c6f772d6c6576656c2063616c6c206661696c6564815250856001600160a01b0316611d8e9092919063ffffffff16565b8051909150156103f25780806020019051810190611c4591906125b2565b6103f25760405162461bcd60e51b815260206004820152602a60248201527f5361666545524332303a204552433230206f7065726174696f6e20646964206e6044820152691bdd081cdd58d8d9595960b21b6064820152608401610463565b600054610100900460ff16611ccb5760405162461bcd60e51b815260040161046390612539565b6000815111611d425760405162461bcd60e51b815260206004820152603760248201527f537570706f727473546f6b656e3a20436f6e7472616374206d7573742073757060448201527f706f7274206174206c65617374206f6e6520746f6b656e0000000000000000006064820152608401610463565b60005b815181101561047657611d7b828281518110611d6357611d63612373565b60200260200101516097611da590919063ffffffff16565b5080611d868161239f565b915050611d45565b6060611d9d8484600085611dba565b949350505050565b6000610919836001600160a01b038416611eeb565b606082471015611e1b5760405162461bcd60e51b815260206004820152602660248201527f416464726573733a20696e73756666696369656e742062616c616e636520666f6044820152651c8818d85b1b60d21b6064820152608401610463565b6001600160a01b0385163b611e725760405162461bcd60e51b815260206004820152601d60248201527f416464726573733a2063616c6c20746f206e6f6e2d636f6e74726163740000006044820152606401610463565b600080866001600160a01b03168587604051611e8e91906125d4565b60006040518083038185875af1925050503d8060008114611ecb576040519150601f19603f3d011682016040523d82523d6000602084013e611ed0565b606091505b5091509150611ee0828286611f3a565b979650505050505050565b6000818152600183016020526040812054611f32575081546001818101845560008481526020808220909301849055845484825282860190935260409020919091556103b9565b5060006103b9565b60608315611f49575081610919565b825115611f595782518084602001fd5b8160405162461bcd60e51b8152600401610463919061245b565b600060208284031215611f8557600080fd5b81356001600160e01b03198116811461091957600080fd5b6001600160a01b038116811461105557600080fd5b600060208284031215611fc457600080fd5b813561091981611f9d565b600060208284031215611fe157600080fd5b5035919050565b60008060408385031215611ffb57600080fd5b82359150602083013561200d81611f9d565b809150509250929050565b634e487b7160e01b600052604160045260246000fd5b604051601f8201601f1916810167ffffffffffffffff8111828210171561205757612057612018565b604052919050565b600067ffffffffffffffff82111561207957612079612018565b5060051b60200190565b6000602080838503121561209657600080fd5b823567ffffffffffffffff8111156120ad57600080fd5b8301601f810185136120be57600080fd5b80356120d16120cc8261205f565b61202e565b81815260059190911b820183019083810190878311156120f057600080fd5b928401925b82841015611ee0578335825292840192908401906120f5565b803561211981611f9d565b919050565b600080600080600060a0868803121561213657600080fd5b853567ffffffffffffffff81111561214d57600080fd5b8601601f8101881361215e57600080fd5b8035602061216e6120cc8361205f565b82815260059290921b8301810191818101908b84111561218d57600080fd5b938201935b838510156121b45784356121a581611f9d565b82529382019390820190612192565b98505088013595506121cb9150506040870161210e565b92506121d96060870161210e565b91506121e76080870161210e565b90509295509295909350565b6000806040838503121561220657600080fd5b823561221181611f9d565b946020939093013593505050565b60208082526041908201527f537570706f727473546f6b656e3a20546f6b656e20616d6f756e74206c656e6760408201527f7468206d757374206d6174636820737570706f727420746f6b656e20636f756e6060820152601d60fa1b608082015260a00190565b60208082526030908201527f537570706f727473546f6b656e3a204f6e6c7920737570706f7274656420746f60408201526f1ad95b9cc8185c9948185b1b1bddd95960821b606082015260800190565b6000602082840312156122e857600080fd5b5051919050565b60006020828403121561230157600080fd5b815161091981611f9d565b80516001600160701b038116811461211957600080fd5b60008060006060848603121561233857600080fd5b6123418461230c565b925061234f6020850161230c565b9150604084015163ffffffff8116811461236857600080fd5b809150509250925092565b634e487b7160e01b600052603260045260246000fd5b634e487b7160e01b600052601160045260246000fd5b60006000198214156123b3576123b3612389565b5060010190565b60005b838110156123d55781810151838201526020016123bd565b83811115610cba5750506000910152565b7f416363657373436f6e74726f6c3a206163636f756e742000000000000000000081526000835161241e8160178501602088016123ba565b7001034b99036b4b9b9b4b733903937b6329607d1b601791840191820152835161244f8160288401602088016123ba565b01602801949350505050565b602081526000825180602084015261247a8160408501602087016123ba565b601f01601f19169190910160400192915050565b60008160001904831182151516156124a8576124a8612389565b500290565b6000826124ca57634e487b7160e01b600052601260045260246000fd5b500490565b600082198211156124e2576124e2612389565b500190565b600080604083850312156124fa57600080fd5b505080516020909101519092909150565b60008060006060848603121561252057600080fd5b8351925060208401519150604084015190509250925092565b6020808252602b908201527f496e697469616c697a61626c653a20636f6e7472616374206973206e6f74206960408201526a6e697469616c697a696e6760a81b606082015260800190565b60008282101561259657612596612389565b500390565b6000816125aa576125aa612389565b506000190190565b6000602082840312156125c457600080fd5b8151801515811461091957600080fd5b600082516125e68184602087016123ba565b919091019291505056fea264697066735822122020e6d16cc4793d6d18a41dbc089a1ffe7b3fcc87354f92d1281b009359ef013964736f6c634300080a0033",
    "linkReferences": {}
  }
}