{
  "abi": [
    {
      "anonymous": false,
      "inputs": [
        {
          "indexed": true,
          "internalType": "address",
          "name": "owner",
          "type": "address"
        },
        {
          "indexed": true,
          "internalType": "address",
          "name": "spender",
          "type": "address"
        },
        {
          "indexed": false,
          "internalType": "uint256",
          "name": "value",
          "type": "uint256"
        }
      ],
      "name": "Approval",
      "type": "event"
    },
    {
      "anonymous": false,
      "inputs": [
        {
          "indexed": true,
          "internalType": "address",
          "name": "caller",
          "type": "address"
        },
        {
          "indexed": false,
          "internalType": "uint256[]",
          "name": "amount",
          "type": "uint256[]"
        },
        {
          "indexed": false,
          "internalType": "uint256",
          "name": "shares",
          "type": "uint256"
        }
      ],
      "name": "Deposit",
      "type": "event"
    },
    {
      "anonymous": false,
      "inputs": [
        {
          "indexed": true,
          "internalType": "address",
          "name": "caller",
          "type": "address"
        },
        {
          "indexed": false,
          "internalType": "uint256",
          "name": "shares",
          "type": "uint256"
        },
        {
          "indexed": false,
          "internalType": "uint256[]",
          "name": "amount",
          "type": "uint256[]"
        }
      ],
      "name": "Redeem",
      "type": "event"
    },
    {
      "anonymous": false,
      "inputs": [
        {
          "indexed": true,
          "internalType": "bytes32",
          "name": "role",
          "type": "bytes32"
        },
        {
          "indexed": true,
          "internalType": "bytes32",
          "name": "previousAdminRole",
          "type": "bytes32"
        },
        {
          "indexed": true,
          "internalType": "bytes32",
          "name": "newAdminRole",
          "type": "bytes32"
        }
      ],
      "name": "RoleAdminChanged",
      "type": "event"
    },
    {
      "anonymous": false,
      "inputs": [
        {
          "indexed": true,
          "internalType": "bytes32",
          "name": "role",
          "type": "bytes32"
        },
        {
          "indexed": true,
          "internalType": "address",
          "name": "account",
          "type": "address"
        },
        {
          "indexed": true,
          "internalType": "address",
          "name": "sender",
          "type": "address"
        }
      ],
      "name": "RoleGranted",
      "type": "event"
    },
    {
      "anonymous": false,
      "inputs": [
        {
          "indexed": true,
          "internalType": "bytes32",
          "name": "role",
          "type": "bytes32"
        },
        {
          "indexed": true,
          "internalType": "address",
          "name": "account",
          "type": "address"
        },
        {
          "indexed": true,
          "internalType": "address",
          "name": "sender",
          "type": "address"
        }
      ],
      "name": "RoleRevoked",
      "type": "event"
    },
    {
      "anonymous": false,
      "inputs": [
        {
          "indexed": true,
          "internalType": "address",
          "name": "from",
          "type": "address"
        },
        {
          "indexed": true,
          "internalType": "address",
          "name": "to",
          "type": "address"
        },
        {
          "indexed": false,
          "internalType": "uint256",
          "name": "value",
          "type": "uint256"
        }
      ],
      "name": "Transfer",
      "type": "event"
    },
    {
      "inputs": [],
      "name": "DEFAULT_ADMIN_ROLE",
      "outputs": [
        {
          "internalType": "bytes32",
          "name": "",
          "type": "bytes32"
        }
      ],
      "stateMutability": "view",
      "type": "function"
    },
    {
      "inputs": [],
      "name": "EMERGENCY_ADMIN_ROLE",
      "outputs": [
        {
          "internalType": "bytes32",
          "name": "",
          "type": "bytes32"
        }
      ],
      "stateMutability": "view",
      "type": "function"
    },
    {
      "inputs": [],
      "name": "FEE_ADMIN_ROLE",
      "outputs": [
        {
          "internalType": "bytes32",
          "name": "",
          "type": "bytes32"
        }
      ],
      "stateMutability": "view",
      "type": "function"
    },
    {
      "inputs": [],
      "name": "VAULT_ADMIN_ROLE",
      "outputs": [
        {
          "internalType": "bytes32",
          "name": "",
          "type": "bytes32"
        }
      ],
      "stateMutability": "view",
      "type": "function"
    },
    {
      "inputs": [],
      "name": "VAULT_CONTROLLER_ROLE",
      "outputs": [
        {
          "internalType": "bytes32",
          "name": "",
          "type": "bytes32"
        }
      ],
      "stateMutability": "view",
      "type": "function"
    },
    {
      "inputs": [
        {
          "internalType": "address",
          "name": "owner",
          "type": "address"
        },
        {
          "internalType": "address",
          "name": "spender",
          "type": "address"
        }
      ],
      "name": "allowance",
      "outputs": [
        {
          "internalType": "uint256",
          "name": "",
          "type": "uint256"
        }
      ],
      "stateMutability": "view",
      "type": "function"
    },
    {
      "inputs": [
        {
          "internalType": "address",
          "name": "spender",
          "type": "address"
        },
        {
          "internalType": "uint256",
          "name": "amount",
          "type": "uint256"
        }
      ],
      "name": "approve",
      "outputs": [
        {
          "internalType": "bool",
          "name": "",
          "type": "bool"
        }
      ],
      "stateMutability": "nonpayable",
      "type": "function"
    },
    {
      "inputs": [
        {
          "internalType": "contract IERC20",
          "name": "token",
          "type": "address"
        }
      ],
      "name": "approxAvailable",
      "outputs": [
        {
          "internalType": "uint256",
          "name": "amount",
          "type": "uint256"
        }
      ],
      "stateMutability": "view",
      "type": "function"
    },
    {
      "inputs": [
        {
          "internalType": "contract IERC20",
          "name": "token",
          "type": "address"
        }
      ],
      "name": "approxBalance",
      "outputs": [
        {
          "internalType": "uint256",
          "name": "amount",
          "type": "uint256"
        }
      ],
      "stateMutability": "view",
      "type": "function"
    },
    {
      "inputs": [
        {
          "internalType": "address",
          "name": "account",
          "type": "address"
        }
      ],
      "name": "balanceOf",
      "outputs": [
        {
          "internalType": "uint256",
          "name": "",
          "type": "uint256"
        }
      ],
      "stateMutability": "view",
      "type": "function"
    },
    {
      "inputs": [],
      "name": "decimals",
      "outputs": [
        {
          "internalType": "uint8",
          "name": "",
          "type": "uint8"
        }
      ],
      "stateMutability": "view",
      "type": "function"
    },
    {
      "inputs": [
        {
          "internalType": "address",
          "name": "spender",
          "type": "address"
        },
        {
          "internalType": "uint256",
          "name": "subtractedValue",
          "type": "uint256"
        }
      ],
      "name": "decreaseAllowance",
      "outputs": [
        {
          "internalType": "bool",
          "name": "",
          "type": "bool"
        }
      ],
      "stateMutability": "nonpayable",
      "type": "function"
    },
    {
      "inputs": [
        {
          "internalType": "uint256[]",
          "name": "amount",
          "type": "uint256[]"
        }
      ],
      "name": "deposit",
      "outputs": [
        {
          "internalType": "uint256",
          "name": "shares",
          "type": "uint256"
        }
      ],
      "stateMutability": "nonpayable",
      "type": "function"
    },
    {
      "inputs": [],
      "name": "depositAllIntoStrategy",
      "outputs": [],
      "stateMutability": "nonpayable",
      "type": "function"
    },
    {
      "inputs": [
        {
          "internalType": "uint256[]",
          "name": "amount",
          "type": "uint256[]"
        }
      ],
      "name": "depositIntoStrategy",
      "outputs": [],
      "stateMutability": "nonpayable",
      "type": "function"
    },
    {
      "inputs": [
        {
          "internalType": "uint256[]",
          "name": "amount",
          "type": "uint256[]"
        }
      ],
      "name": "estimateDeposit",
      "outputs": [
        {
          "internalType": "uint256",
          "name": "shares",
          "type": "uint256"
        }
      ],
      "stateMutability": "view",
      "type": "function"
    },
    {
      "inputs": [
        {
          "internalType": "uint256",
          "name": "shares",
          "type": "uint256"
        }
      ],
      "name": "estimateRedeem",
      "outputs": [
        {
          "internalType": "uint256[]",
          "name": "amount",
          "type": "uint256[]"
        }
      ],
      "stateMutability": "view",
      "type": "function"
    },
    {
      "inputs": [],
      "name": "feeAmount",
      "outputs": [
        {
          "internalType": "uint256",
          "name": "_amount",
          "type": "uint256"
        }
      ],
      "stateMutability": "view",
      "type": "function"
    },
    {
      "inputs": [],
      "name": "feePercent",
      "outputs": [
        {
          "internalType": "uint256",
          "name": "_percent",
          "type": "uint256"
        },
        {
          "internalType": "uint256",
          "name": "_denominator",
          "type": "uint256"
        }
      ],
      "stateMutability": "view",
      "type": "function"
    },
    {
      "inputs": [],
      "name": "feeRecipient",
      "outputs": [
        {
          "internalType": "address",
          "name": "_recipient",
          "type": "address"
        }
      ],
      "stateMutability": "view",
      "type": "function"
    },
    {
      "inputs": [
        {
          "internalType": "bytes32",
          "name": "role",
          "type": "bytes32"
        }
      ],
      "name": "getRoleAdmin",
      "outputs": [
        {
          "internalType": "bytes32",
          "name": "",
          "type": "bytes32"
        }
      ],
      "stateMutability": "view",
      "type": "function"
    },
    {
      "inputs": [],
      "name": "getStrategy",
      "outputs": [
        {
          "internalType": "contract IStrategy",
          "name": "_strategy",
          "type": "address"
        }
      ],
      "stateMutability": "view",
      "type": "function"
    },
    {
      "inputs": [
        {
          "internalType": "bytes32",
          "name": "role",
          "type": "bytes32"
        },
        {
          "internalType": "address",
          "name": "account",
          "type": "address"
        }
      ],
      "name": "grantRole",
      "outputs": [],
      "stateMutability": "nonpayable",
      "type": "function"
    },
    {
      "inputs": [
        {
          "internalType": "bytes32",
          "name": "role",
          "type": "bytes32"
        },
        {
          "internalType": "address",
          "name": "account",
          "type": "address"
        }
      ],
      "name": "hasRole",
      "outputs": [
        {
          "internalType": "bool",
          "name": "",
          "type": "bool"
        }
      ],
      "stateMutability": "view",
      "type": "function"
    },
    {
      "inputs": [
        {
          "internalType": "contract IERC20",
          "name": "token",
          "type": "address"
        },
        {
          "internalType": "uint256",
          "name": "amount",
          "type": "uint256"
        }
      ],
      "name": "inCaseTokensGetStuck",
      "outputs": [],
      "stateMutability": "nonpayable",
      "type": "function"
    },
    {
      "inputs": [
        {
          "internalType": "address",
          "name": "spender",
          "type": "address"
        },
        {
          "internalType": "uint256",
          "name": "addedValue",
          "type": "uint256"
        }
      ],
      "name": "increaseAllowance",
      "outputs": [
        {
          "internalType": "bool",
          "name": "",
          "type": "bool"
        }
      ],
      "stateMutability": "nonpayable",
      "type": "function"
    },
    {
      "inputs": [
        {
          "internalType": "contract IERC20[]",
          "name": "token",
          "type": "address[]"
        },
        {
          "internalType": "contract IStrategy",
          "name": "_strategy",
          "type": "address"
        },
        {
          "internalType": "address",
          "name": "_feeRecipient",
          "type": "address"
        },
        {
          "internalType": "uint256",
          "name": "_feePercent",
          "type": "uint256"
        },
        {
          "internalType": "uint256",
          "name": "_feePercentDenominator",
          "type": "uint256"
        }
      ],
      "name": "initialize",
      "outputs": [],
      "stateMutability": "nonpayable",
      "type": "function"
    },
    {
      "inputs": [
        {
          "internalType": "contract IERC20",
          "name": "token",
          "type": "address"
        }
      ],
      "name": "isSupportedToken",
      "outputs": [
        {
          "internalType": "bool",
          "name": "supportedToken",
          "type": "bool"
        }
      ],
      "stateMutability": "view",
      "type": "function"
    },
    {
      "inputs": [],
      "name": "name",
      "outputs": [
        {
          "internalType": "string",
          "name": "",
          "type": "string"
        }
      ],
      "stateMutability": "view",
      "type": "function"
    },
    {
      "inputs": [
        {
          "internalType": "uint256",
          "name": "shares",
          "type": "uint256"
        }
      ],
      "name": "redeem",
      "outputs": [
        {
          "internalType": "uint256[]",
          "name": "amount",
          "type": "uint256[]"
        }
      ],
      "stateMutability": "nonpayable",
      "type": "function"
    },
    {
      "inputs": [
        {
          "internalType": "bytes32",
          "name": "role",
          "type": "bytes32"
        },
        {
          "internalType": "address",
          "name": "account",
          "type": "address"
        }
      ],
      "name": "renounceRole",
      "outputs": [],
      "stateMutability": "nonpayable",
      "type": "function"
    },
    {
      "inputs": [
        {
          "internalType": "bytes32",
          "name": "role",
          "type": "bytes32"
        },
        {
          "internalType": "address",
          "name": "account",
          "type": "address"
        }
      ],
      "name": "revokeRole",
      "outputs": [],
      "stateMutability": "nonpayable",
      "type": "function"
    },
    {
      "inputs": [
        {
          "internalType": "uint256",
          "name": "_amount",
          "type": "uint256"
        }
      ],
      "name": "setFeeAmount",
      "outputs": [],
      "stateMutability": "nonpayable",
      "type": "function"
    },
    {
      "inputs": [
        {
          "internalType": "uint256",
          "name": "_percent",
          "type": "uint256"
        },
        {
          "internalType": "uint256",
          "name": "_denominator",
          "type": "uint256"
        }
      ],
      "name": "setFeePercent",
      "outputs": [],
      "stateMutability": "nonpayable",
      "type": "function"
    },
    {
      "inputs": [
        {
          "internalType": "address",
          "name": "_recipient",
          "type": "address"
        }
      ],
      "name": "setFeeRecipient",
      "outputs": [],
      "stateMutability": "nonpayable",
      "type": "function"
    },
    {
      "inputs": [
        {
          "internalType": "contract IStrategy",
          "name": "_strategy",
          "type": "address"
        }
      ],
      "name": "setStrategy",
      "outputs": [],
      "stateMutability": "nonpayable",
      "type": "function"
    },
    {
      "inputs": [
        {
          "internalType": "bytes4",
          "name": "interfaceId",
          "type": "bytes4"
        }
      ],
      "name": "supportsInterface",
      "outputs": [
        {
          "internalType": "bool",
          "name": "",
          "type": "bool"
        }
      ],
      "stateMutability": "view",
      "type": "function"
    },
    {
      "inputs": [],
      "name": "symbol",
      "outputs": [
        {
          "internalType": "string",
          "name": "",
          "type": "string"
        }
      ],
      "stateMutability": "view",
      "type": "function"
    },
    {
      "inputs": [
        {
          "internalType": "uint256",
          "name": "index",
          "type": "uint256"
        }
      ],
      "name": "tokenByIndex",
      "outputs": [
        {
          "internalType": "contract IERC20",
          "name": "token",
          "type": "address"
        }
      ],
      "stateMutability": "view",
      "type": "function"
    },
    {
      "inputs": [],
      "name": "tokenCount",
      "outputs": [
        {
          "internalType": "uint256",
          "name": "count",
          "type": "uint256"
        }
      ],
      "stateMutability": "view",
      "type": "function"
    },
    {
      "inputs": [],
      "name": "totalSupply",
      "outputs": [
        {
          "internalType": "uint256",
          "name": "",
          "type": "uint256"
        }
      ],
      "stateMutability": "view",
      "type": "function"
    },
    {
      "inputs": [
        {
          "internalType": "address",
          "name": "to",
          "type": "address"
        },
        {
          "internalType": "uint256",
          "name": "amount",
          "type": "uint256"
        }
      ],
      "name": "transfer",
      "outputs": [
        {
          "internalType": "bool",
          "name": "",
          "type": "bool"
        }
      ],
      "stateMutability": "nonpayable",
      "type": "function"
    },
    {
      "inputs": [
        {
          "internalType": "address",
          "name": "from",
          "type": "address"
        },
        {
          "internalType": "address",
          "name": "to",
          "type": "address"
        },
        {
          "internalType": "uint256",
          "name": "amount",
          "type": "uint256"
        }
      ],
      "name": "transferFrom",
      "outputs": [
        {
          "internalType": "bool",
          "name": "",
          "type": "bool"
        }
      ],
      "stateMutability": "nonpayable",
      "type": "function"
    },
    {
      "inputs": [],
      "name": "withdrawAllFromStrategy",
      "outputs": [],
      "stateMutability": "nonpayable",
      "type": "function"
    },
    {
      "inputs": [
        {
          "internalType": "uint256[]",
          "name": "amount",
          "type": "uint256[]"
        }
      ],
      "name": "withdrawFromStrategy",
      "outputs": [],
      "stateMutability": "nonpayable",
      "type": "function"
    }
  ],
  "bytecode": {
    "object": "0x608060405234801561001057600080fd5b50612f67806100206000396000f3fe608060405234801561001057600080fd5b506004361061027f5760003560e01c80636e76fc8f1161015c5780639f181b5e116100ce578063cdf6503011610087578063cdf650301461055e578063d547741f14610571578063db006a7514610584578063dd62ed3e14610597578063e74b981b146105d0578063fa736c8f146105e357600080fd5b80639f181b5e1461050d578063a217fddf14610515578063a457c2d71461051d578063a9059cbb14610530578063ade1096014610543578063c6d758cb1461054b57600080fd5b80637fd6f15c116101205780637fd6f15c146104b3578063833cbb5a146104ce5780638a50af89146104d657806391d14854146104e957806395d89b41146104fc5780639e3411191461050457600080fd5b80636e76fc8f146104525780636f1678261461045b578063704e2b2d1461046e57806370a08231146104775780637c1412ca146104a057600080fd5b806333a100ca116101f55780634f6ccce7116101b95780634f6ccce7146103eb578063598b8e71146103fe578063612a1b09146104115780636423faf41461042457806369e15404146104375780636b3926801461043f57600080fd5b806333a100ca1461039857806336568abe146103ab57806339509351146103be57806346904840146103d15780634cba593a146103e257600080fd5b806318160ddd1161024757806318160ddd1461031957806323b872dd1461032b578063240028e81461033e578063248a9ca3146103515780632f2ff15d14610374578063313ce5671461038957600080fd5b806301ffc9a71461028457806306fdde03146102ac57806307da0603146102c1578063095ea7b3146102e657806316037c34146102f9575b600080fd5b6102976102923660046127a1565b6105f6565b60405190151581526020015b60405180910390f35b6102b461062d565b6040516102a391906127f7565b60d3546001600160a01b03165b6040516001600160a01b0390911681526020016102a3565b6102976102f436600461284f565b6106bf565b61030c61030736600461287b565b6106d7565b6040516102a391906128cf565b6099545b6040519081526020016102a3565b6102976103393660046128e2565b6107b7565b61029761034c366004612923565b6107dd565b61031d61035f36600461287b565b60009081526065602052604090206001015490565b610387610382366004612940565b6107ea565b005b604051601281526020016102a3565b6103876103a6366004612923565b610815565b6103876103b9366004612940565b610845565b6102976103cc36600461284f565b6108c8565b60cc546001600160a01b03166102ce565b61031d60cb5481565b6102ce6103f936600461287b565b610907565b61031d61040c3660046129db565b61097f565b61031d61041f366004612923565b610a8e565b6103876104323660046129db565b610b9d565b60cf5461031d565b61038761044d36600461287b565b610bdb565b61031d60d05481565b610387610469366004612a66565b610bee565b61031d60d25481565b61031d610485366004612923565b6001600160a01b031660009081526097602052604090205490565b61031d6104ae366004612923565b610c44565b60cd5460ce54604080519283526020830191909152016102a3565b610387610c75565b6103876104e43660046129db565b610c8d565b6102976104f7366004612940565b610ccb565b6102b4610cf6565b61031d60d15481565b61031d610d05565b61031d600081565b61029761052b36600461284f565b610d16565b61029761053e36600461284f565b610db3565b610387610dc1565b61038761055936600461284f565b610dd6565b61031d61056c3660046129db565b610e4f565b61038761057f366004612940565b610e8a565b61030c61059236600461287b565b610eb0565b61031d6105a5366004612a88565b6001600160a01b03918216600090815260986020908152604080832093909416825291909152205490565b6103876105de366004612923565b611033565b6103876105f1366004612ab6565b611063565b60006001600160e01b03198216637965db0b60e01b148061062757506301ffc9a760e01b6001600160e01b03198316145b92915050565b6060609a805461063c90612b84565b80601f016020809104026020016040519081016040528092919081815260200182805461066890612b84565b80156106b55780601f1061068a576101008083540402835291602001916106b5565b820191906000526020600020905b81548152906001019060200180831161069857829003601f168201915b5050505050905090565b6000336106cd818585611224565b5060019392505050565b606060006106e460995490565b90506106ee610d05565b67ffffffffffffffff81111561070657610706612970565b60405190808252806020026020018201604052801561072f578160200160208202803683370190505b5091508061073d5750919050565b60005b610748610d05565b8110156107b057600061075a82610907565b9050600061076782610a8e565b905061077d846107778389611348565b90611354565b85848151811061078f5761078f612bb9565b602002602001018181525050505080806107a890612be5565b915050610740565b5050919050565b6000336107c5858285611360565b6107d08585856113ec565b60019150505b9392505050565b600061062760c9836115ba565b60008281526065602052604090206001015461080681336115dc565b6108108383611640565b505050565b60d25461082281336115dc565b5060d380546001600160a01b0319166001600160a01b0392909216919091179055565b6001600160a01b03811633146108ba5760405162461bcd60e51b815260206004820152602f60248201527f416363657373436f6e74726f6c3a2063616e206f6e6c792072656e6f756e636560448201526e103937b632b9903337b91039b2b63360891b60648201526084015b60405180910390fd5b6108c482826116c6565b5050565b3360008181526098602090815260408083206001600160a01b03871684529091528120549091906106cd9082908690610902908790612c00565b611224565b6000610911610d05565b82106109745760405162461bcd60e51b815260206004820152602c60248201527f537570706f727473546f6b656e3a20496e646578206d757374206265206c657360448201526b1cc81d1a185b8818dbdd5b9d60a21b60648201526084016108b1565b61062760c98361172d565b60008161098a610d05565b8151146109a95760405162461bcd60e51b81526004016108b190612c18565b60006109b484611739565b909350905060005b6109c4610d05565b811015610a1657610a0433308784815181106109e2576109e2612bb9565b60200260200101516109f385610907565b6001600160a01b0316929190611890565b80610a0e81612be5565b9150506109bc565b50610a1f6118fb565b610a293384611a17565b610a44610a3e60cc546001600160a01b031690565b82611a17565b336001600160a01b03167fff195810018e2867a43eaac646e6b3fc71bc32d776175995704b6bc10d7fada88585604051610a7f929190612c7f565b60405180910390a25050919050565b600081610a9a816107dd565b610ab65760405162461bcd60e51b81526004016108b190612ca1565b60d35460405163612a1b0960e01b81526001600160a01b038581166004830152610b9492169063612a1b0990602401602060405180830381865afa158015610b02573d6000803e3d6000fd5b505050506040513d601f19601f82011682018060405250810190610b269190612cf1565b6040516370a0823160e01b81523060048201526001600160a01b038616906370a0823190602401602060405180830381865afa158015610b6a573d6000803e3d6000fd5b505050506040513d601f19601f82011682018060405250810190610b8e9190612cf1565b90611af6565b91505b50919050565b80610ba6610d05565b815114610bc55760405162461bcd60e51b81526004016108b190612c18565b60d254610bd281336115dc565b61081083611b02565b60cb54610be881336115dc565b5060cf55565b60cb54610bfb81336115dc565b81610c185760405162461bcd60e51b81526004016108b190612d0a565b81831115610c385760405162461bcd60e51b81526004016108b190612d4e565b5060cd9190915560ce55565b600081610c50816107dd565b610c6c5760405162461bcd60e51b81526004016108b190612ca1565b610b9483610a8e565b60d254610c8281336115dc565b610c8a6118fb565b50565b80610c96610d05565b815114610cb55760405162461bcd60e51b81526004016108b190612c18565b60d254610cc281336115dc565b61081083611b67565b60009182526065602090815260408084206001600160a01b0393909316845291905290205460ff1690565b6060609b805461063c90612b84565b6000610d1160c9611c02565b905090565b3360008181526098602090815260408083206001600160a01b038716845290915281205490919083811015610d9b5760405162461bcd60e51b815260206004820152602560248201527f45524332303a2064656372656173656420616c6c6f77616e63652062656c6f77604482015264207a65726f60d81b60648201526084016108b1565b610da88286868403611224565b506001949350505050565b6000336106cd8185856113ec565b60d254610dce81336115dc565b610c8a611c0c565b60d054610de381336115dc565b73eeeeeeeeeeeeeeeeeeeeeeeeeeeeeeeeeeeeeeee6001600160a01b0384161415610e3b57604051339083156108fc029084906000818181858888f19350505050158015610e35573d6000803e3d6000fd5b50505050565b6108106001600160a01b0384163384611c5c565b600081610e5a610d05565b815114610e795760405162461bcd60e51b81526004016108b190612c18565b610e8283611739565b509392505050565b600082815260656020526040902060010154610ea681336115dc565b61081083836116c6565b6060610ebb826106d7565b9050610ec5611c0c565b60005b610ed0610d05565b811015610fd8576000610ee282610907565b9050610f71838381518110610ef957610ef9612bb9565b60209081029190910101516040516370a0823160e01b81523060048201526001600160a01b038416906370a0823190602401602060405180830381865afa158015610f48573d6000803e3d6000fd5b505050506040513d601f19601f82011682018060405250810190610f6c9190612cf1565b611c8c565b838381518110610f8357610f83612bb9565b6020908102919091010152610fc533848481518110610fa457610fa4612bb9565b6020026020010151836001600160a01b0316611c5c9092919063ffffffff16565b5080610fd081612be5565b915050610ec8565b50610fe16118fb565b610feb3383611ca2565b336001600160a01b03167f960a2b11be69b13b341c09ebff9ea8e90839cadf60d098c565c9c6e9afb2672e8383604051611026929190612dab565b60405180910390a2919050565b60cb5461104081336115dc565b5060cc80546001600160a01b0319166001600160a01b0392909216919091179055565b600054610100900460ff1661107e5760005460ff1615611082565b303b155b6110e55760405162461bcd60e51b815260206004820152602e60248201527f496e697469616c697a61626c653a20636f6e747261637420697320616c72656160448201526d191e481a5b9a5d1a585b1a5e995960921b60648201526084016108b1565b600054610100900460ff16158015611107576000805461ffff19166101011790555b6111546040518060400160405280600f81526020016e546f72717565205661756c7420563160881b815250604051806040016040528060048152602001635456563160e01b815250611df0565b61115c611e21565b61116586611e4a565b6111728484846000611e7a565b61117a611ead565b7f7edcee67725a77bfa311b39349d7e96df9b23fbdbdcb328dfc17d77926920c1360d18190556111aa9080611ee4565b6111bc60d1546111b73390565b611640565b7f9872d9a33a826e6fa63de183f4672fa7578a62703fcc3dcc926810a2b5a12fd960d281905560d1546111ef9190611ee4565b60d380546001600160a01b0319166001600160a01b038716179055801561121c576000805461ff00191690555b505050505050565b6001600160a01b0383166112865760405162461bcd60e51b8152602060048201526024808201527f45524332303a20617070726f76652066726f6d20746865207a65726f206164646044820152637265737360e01b60648201526084016108b1565b6001600160a01b0382166112e75760405162461bcd60e51b815260206004820152602260248201527f45524332303a20617070726f766520746f20746865207a65726f206164647265604482015261737360f01b60648201526084016108b1565b6001600160a01b0383811660008181526098602090815260408083209487168084529482529182902085905590518481527f8c5be1e5ebec7d5bd14f71427d1e84f3dd0314c0f7b2291e5b200ac8c7c3b925910160405180910390a3505050565b60006107d68284612dc4565b60006107d68284612de3565b6001600160a01b038381166000908152609860209081526040808320938616835292905220546000198114610e3557818110156113df5760405162461bcd60e51b815260206004820152601d60248201527f45524332303a20696e73756666696369656e7420616c6c6f77616e636500000060448201526064016108b1565b610e358484848403611224565b6001600160a01b0383166114505760405162461bcd60e51b815260206004820152602560248201527f45524332303a207472616e736665722066726f6d20746865207a65726f206164604482015264647265737360d81b60648201526084016108b1565b6001600160a01b0382166114b25760405162461bcd60e51b815260206004820152602360248201527f45524332303a207472616e7366657220746f20746865207a65726f206164647260448201526265737360e81b60648201526084016108b1565b6001600160a01b0383166000908152609760205260409020548181101561152a5760405162461bcd60e51b815260206004820152602660248201527f45524332303a207472616e7366657220616d6f756e7420657863656564732062604482015265616c616e636560d01b60648201526084016108b1565b6001600160a01b03808516600090815260976020526040808220858503905591851681529081208054849290611561908490612c00565b92505081905550826001600160a01b0316846001600160a01b03167fddf252ad1be2c89b69c2b068fc378daa952ba7f163c4a11628f55a4df523b3ef846040516115ad91815260200190565b60405180910390a3610e35565b6001600160a01b038116600090815260018301602052604081205415156107d6565b6115e68282610ccb565b6108c4576115fe816001600160a01b03166014611f2f565b611609836020611f2f565b60405160200161161a929190612e05565b60408051601f198184030181529082905262461bcd60e51b82526108b1916004016127f7565b61164a8282610ccb565b6108c45760008281526065602090815260408083206001600160a01b03851684529091529020805460ff191660011790556116823390565b6001600160a01b0316816001600160a01b0316837f2f8788117e7eff1d82e926ec794901d17c78024a50270940304540a733656f0d60405160405180910390a45050565b6116d08282610ccb565b156108c45760008281526065602090815260408083206001600160a01b0385168085529252808320805460ff1916905551339285917ff6391f5c32d9c69d2a47ea670b442974b53935d1edc7fd64eb21e047a839171b9190a45050565b60006107d683836120cb565b600080600061174760995490565b9050806117c4578360008151811061176157611761612bb9565b602002602001015192506000600190505b61177a610d05565b8110156117be57600085828151811061179557611795612bb9565b60200260200101519050848110156117ab578094505b50806117b681612be5565b915050611772565b50611857565b6117f26117d16000610907565b856000815181106117e4576117e4612bb9565b6020026020010151836120f5565b925060015b6117ff610d05565b81101561185557600061183461181483610907565b87848151811061182657611826612bb9565b6020026020010151856120f5565b905084811015611842578094505b508061184d81612be5565b9150506117f7565b505b60008061186760cd5460ce549091565b909250905061187a816107778785611348565b93506118868585612127565b9450505050915091565b6040516001600160a01b0380851660248301528316604482015260648101829052610e359085906323b872dd60e01b906084015b60408051601f198184030181529190526020810180516001600160e01b03166001600160e01b031990931692909217909152612133565b60005b611906610d05565b8110156119b257600061191882610907565b60d3546040516370a0823160e01b815230600482015291925061199f916001600160a01b03918216918416906370a0823190602401602060405180830381865afa15801561196a573d6000803e3d6000fd5b505050506040513d601f19601f8201168201806040525081019061198e9190612cf1565b6001600160a01b0384169190612205565b50806119aa81612be5565b9150506118fe565b5060d360009054906101000a90046001600160a01b03166001600160a01b031663de5f62686040518163ffffffff1660e01b8152600401600060405180830381600087803b158015611a0357600080fd5b505af1158015610e35573d6000803e3d6000fd5b6001600160a01b038216611a6d5760405162461bcd60e51b815260206004820152601f60248201527f45524332303a206d696e7420746f20746865207a65726f20616464726573730060448201526064016108b1565b8060996000828254611a7f9190612c00565b90915550506001600160a01b03821660009081526097602052604081208054839290611aac908490612c00565b90915550506040518181526001600160a01b038316906000907fddf252ad1be2c89b69c2b068fc378daa952ba7f163c4a11628f55a4df523b3ef9060200160405180910390a35050565b60006107d68284612c00565b60d354604051634c1ecae760e11b81526001600160a01b039091169063983d95ce90611b329084906004016128cf565b600060405180830381600087803b158015611b4c57600080fd5b505af1158015611b60573d6000803e3d6000fd5b5050505050565b60005b611b72610d05565b811015611bd15760d3548251611bbf916001600160a01b031690849084908110611b9e57611b9e612bb9565b6020026020010151611baf84610907565b6001600160a01b03169190612205565b80611bc981612be5565b915050611b6a565b5060d35460405163598b8e7160e01b81526001600160a01b039091169063598b8e7190611b329084906004016128cf565b6000610627825490565b60d360009054906101000a90046001600160a01b03166001600160a01b031663853828b66040518163ffffffff1660e01b8152600401600060405180830381600087803b158015611a0357600080fd5b6040516001600160a01b03831660248201526044810182905261081090849063a9059cbb60e01b906064016118c4565b6000818310611c9b57816107d6565b5090919050565b6001600160a01b038216611d025760405162461bcd60e51b815260206004820152602160248201527f45524332303a206275726e2066726f6d20746865207a65726f206164647265736044820152607360f81b60648201526084016108b1565b6001600160a01b03821660009081526097602052604090205481811015611d765760405162461bcd60e51b815260206004820152602260248201527f45524332303a206275726e20616d6f756e7420657863656564732062616c616e604482015261636560f01b60648201526084016108b1565b6001600160a01b0383166000908152609760205260408120838303905560998054849290611da5908490612e7a565b90915550506040518281526000906001600160a01b038516907fddf252ad1be2c89b69c2b068fc378daa952ba7f163c4a11628f55a4df523b3ef9060200160405180910390a3505050565b600054610100900460ff16611e175760405162461bcd60e51b81526004016108b190612e91565b6108c482826122b7565b600054610100900460ff16611e485760405162461bcd60e51b81526004016108b190612e91565b565b600054610100900460ff16611e715760405162461bcd60e51b81526004016108b190612e91565b610c8a81612305565b600054610100900460ff16611ea15760405162461bcd60e51b81526004016108b190612e91565b610e35848484846123ef565b600054610100900460ff16611ed45760405162461bcd60e51b81526004016108b190612e91565b611edc611e21565b611e486124bf565b600082815260656020526040808220600101805490849055905190918391839186917fbd79b86ffe0ab8e8776151514217cd7cacd52c909f66475c3af44e129f0b00ff9190a4505050565b60606000611f3e836002612dc4565b611f49906002612c00565b67ffffffffffffffff811115611f6157611f61612970565b6040519080825280601f01601f191660200182016040528015611f8b576020820181803683370190505b509050600360fc1b81600081518110611fa657611fa6612bb9565b60200101906001600160f81b031916908160001a905350600f60fb1b81600181518110611fd557611fd5612bb9565b60200101906001600160f81b031916908160001a9053506000611ff9846002612dc4565b612004906001612c00565b90505b600181111561207c576f181899199a1a9b1b9c1cb0b131b232b360811b85600f166010811061203857612038612bb9565b1a60f81b82828151811061204e5761204e612bb9565b60200101906001600160f81b031916908160001a90535060049490941c9361207581612edc565b9050612007565b5083156107d65760405162461bcd60e51b815260206004820181905260248201527f537472696e67733a20686578206c656e67746820696e73756666696369656e7460448201526064016108b1565b60008260000182815481106120e2576120e2612bb9565b9060005260206000200154905092915050565b60008061210185610a8e565b90508061211057839150610e82565b61211e816107778686611348565b95945050505050565b60006107d68284612e7a565b6000612188826040518060400160405280602081526020017f5361666545524332303a206c6f772d6c6576656c2063616c6c206661696c6564815250856001600160a01b03166125239092919063ffffffff16565b80519091501561081057808060200190518101906121a69190612ef3565b6108105760405162461bcd60e51b815260206004820152602a60248201527f5361666545524332303a204552433230206f7065726174696f6e20646964206e6044820152691bdd081cdd58d8d9595960b21b60648201526084016108b1565b604051636eb1769f60e11b81523060048201526001600160a01b038381166024830152600091839186169063dd62ed3e90604401602060405180830381865afa158015612256573d6000803e3d6000fd5b505050506040513d601f19601f8201168201806040525081019061227a9190612cf1565b6122849190612c00565b6040516001600160a01b038516602482015260448101829052909150610e3590859063095ea7b360e01b906064016118c4565b600054610100900460ff166122de5760405162461bcd60e51b81526004016108b190612e91565b81516122f190609a906020850190612708565b50805161081090609b906020840190612708565b600054610100900460ff1661232c5760405162461bcd60e51b81526004016108b190612e91565b60008151116123a35760405162461bcd60e51b815260206004820152603760248201527f537570706f727473546f6b656e3a20436f6e7472616374206d7573742073757060448201527f706f7274206174206c65617374206f6e6520746f6b656e00000000000000000060648201526084016108b1565b60005b81518110156108c4576123dc8282815181106123c4576123c4612bb9565b602002602001015160c961253a90919063ffffffff16565b50806123e781612be5565b9150506123a6565b600054610100900460ff166124165760405162461bcd60e51b81526004016108b190612e91565b816124335760405162461bcd60e51b81526004016108b190612d0a565b818311156124535760405162461bcd60e51b81526004016108b190612d4e565b7f349eec46d2c564a125684d1934a6120a70cc341d3a26d362e358a775e07dec1760cb8190556124839080611ee4565b61249060cb546111b73390565b60cc80546001600160a01b0319166001600160a01b03959095169490941790935560cd9190915560ce5560cf55565b600054610100900460ff166124e65760405162461bcd60e51b81526004016108b190612e91565b7f5358bcfd81d1ef3da152b1755e1c3c6739686fa7e83dbcad0071568cc4b73a6360d08190556125169080611ee4565b611e4860d0546111b73390565b6060612532848460008561254f565b949350505050565b60006107d6836001600160a01b038416612680565b6060824710156125b05760405162461bcd60e51b815260206004820152602660248201527f416464726573733a20696e73756666696369656e742062616c616e636520666f6044820152651c8818d85b1b60d21b60648201526084016108b1565b6001600160a01b0385163b6126075760405162461bcd60e51b815260206004820152601d60248201527f416464726573733a2063616c6c20746f206e6f6e2d636f6e747261637400000060448201526064016108b1565b600080866001600160a01b031685876040516126239190612f15565b60006040518083038185875af1925050503d8060008114612660576040519150601f19603f3d011682016040523d82523d6000602084013e612665565b606091505b50915091506126758282866126cf565b979650505050505050565b60008181526001830160205260408120546126c757508154600181810184556000848152602080822090930184905584548482528286019093526040902091909155610627565b506000610627565b606083156126de5750816107d6565b8251156126ee5782518084602001fd5b8160405162461bcd60e51b81526004016108b191906127f7565b82805461271490612b84565b90600052602060002090601f016020900481019282612736576000855561277c565b82601f1061274f57805160ff191683800117855561277c565b8280016001018555821561277c579182015b8281111561277c578251825591602001919060010190612761565b5061278892915061278c565b5090565b5b80821115612788576000815560010161278d565b6000602082840312156127b357600080fd5b81356001600160e01b0319811681146107d657600080fd5b60005b838110156127e65781810151838201526020016127ce565b83811115610e355750506000910152565b60208152600082518060208401526128168160408501602087016127cb565b601f01601f19169190910160400192915050565b6001600160a01b0381168114610c8a57600080fd5b803561284a8161282a565b919050565b6000806040838503121561286257600080fd5b823561286d8161282a565b946020939093013593505050565b60006020828403121561288d57600080fd5b5035919050565b600081518084526020808501945080840160005b838110156128c4578151875295820195908201906001016128a8565b509495945050505050565b6020815260006107d66020830184612894565b6000806000606084860312156128f757600080fd5b83356129028161282a565b925060208401356129128161282a565b929592945050506040919091013590565b60006020828403121561293557600080fd5b81356107d68161282a565b6000806040838503121561295357600080fd5b8235915060208301356129658161282a565b809150509250929050565b634e487b7160e01b600052604160045260246000fd5b604051601f8201601f1916810167ffffffffffffffff811182821017156129af576129af612970565b604052919050565b600067ffffffffffffffff8211156129d1576129d1612970565b5060051b60200190565b600060208083850312156129ee57600080fd5b823567ffffffffffffffff811115612a0557600080fd5b8301601f81018513612a1657600080fd5b8035612a29612a24826129b7565b612986565b81815260059190911b82018301908381019087831115612a4857600080fd5b928401925b8284101561267557833582529284019290840190612a4d565b60008060408385031215612a7957600080fd5b50508035926020909101359150565b60008060408385031215612a9b57600080fd5b8235612aa68161282a565b915060208301356129658161282a565b600080600080600060a08688031215612ace57600080fd5b853567ffffffffffffffff811115612ae557600080fd5b8601601f81018813612af657600080fd5b80356020612b06612a24836129b7565b82815260059290921b8301810191818101908b841115612b2557600080fd5b938201935b83851015612b4c578435612b3d8161282a565b82529382019390820190612b2a565b9850612b5b905089820161283f565b9650505050612b6c6040870161283f565b94979396509394606081013594506080013592915050565b600181811c90821680612b9857607f821691505b60208210811415610b9757634e487b7160e01b600052602260045260246000fd5b634e487b7160e01b600052603260045260246000fd5b634e487b7160e01b600052601160045260246000fd5b6000600019821415612bf957612bf9612bcf565b5060010190565b60008219821115612c1357612c13612bcf565b500190565b60208082526041908201527f537570706f727473546f6b656e3a20546f6b656e20616d6f756e74206c656e6760408201527f7468206d757374206d6174636820737570706f727420746f6b656e20636f756e6060820152601d60fa1b608082015260a00190565b604081526000612c926040830185612894565b90508260208301529392505050565b60208082526030908201527f537570706f727473546f6b656e3a204f6e6c7920737570706f7274656420746f60408201526f1ad95b9cc8185c9948185b1b1bddd95960821b606082015260800190565b600060208284031215612d0357600080fd5b5051919050565b60208082526024908201527f537570706f7274734665653a2044656e6f6d696e61746f722063616e6e6f74206040820152630626520360e41b606082015260800190565b60208082526037908201527f537570706f7274734665653a2050657263656e742063616e6e6f74206265206760408201527f726561746572207468616e2064656e6f6d696e61746f72000000000000000000606082015260800190565b8281526040602082015260006125326040830184612894565b6000816000190483118215151615612dde57612dde612bcf565b500290565b600082612e0057634e487b7160e01b600052601260045260246000fd5b500490565b7f416363657373436f6e74726f6c3a206163636f756e7420000000000000000000815260008351612e3d8160178501602088016127cb565b7001034b99036b4b9b9b4b733903937b6329607d1b6017918401918201528351612e6e8160288401602088016127cb565b01602801949350505050565b600082821015612e8c57612e8c612bcf565b500390565b6020808252602b908201527f496e697469616c697a61626c653a20636f6e7472616374206973206e6f74206960408201526a6e697469616c697a696e6760a81b606082015260800190565b600081612eeb57612eeb612bcf565b506000190190565b600060208284031215612f0557600080fd5b815180151581146107d657600080fd5b60008251612f278184602087016127cb565b919091019291505056fea2646970667358221220198b310bcaa8527b2adf550a548e552ac6fdf182b47556026a4c56915ee3e79d64736f6c634300080a0033",
    "linkReferences": {}
  }
}